S00B00005457492E7372656325
S11300000C9466000C9483000C9483000C9483007D
S11300100C9483000C9483000C9483000C94830050
S11300200C9483000C9483000C9483000C94830040
S11300300C9483000C9483000C9483000C94830030
S11300400C9483000C9483000C9483000C94830020
S11300500C9483000C9483000C9483000C94830010
S11300600C9483000C9483000C9483000C94830000
S11300700C9483000C9483000C9483000C948300F0
S11300800C9483000C9483000C9483000C948300E0
S11300900C9483000C9483000C9483000C948300D0
S11300A00C9483000C9483000C9483000C948300C0
S11300B00C9483000C9483000C9483000C948300B0
S11300C00C9483000C9483000C94830011241FBEB1
S11300D0CFEFD8E0DEBFCDBF11E0A0E0B1E0EAEFA2
S11300E0F1E002C005900D92A030B107D9F721E0EC
S11300F0A0E0B1E001C01D92A030B207E1F70E9478
S113010085000C94FB000C94000040E054E264EF82
S113011070E088EB90E00E948E00FFCFCF92DF92D8
S1130120EF92FF92CF93DF93EC019A01AB0160E071
S113013074E284EF90E00E94D90069017A0180E1C1
S1130140C81AD108E108F108C701B6012EEF31E061
S113015040E050E00E94D900211102C019820EC073
S1130160243018F481E0898309C0203118F482E036
S1130170898304C0203410F483E08983DA01C9013F
S11301809927AA27BB279C01AD01220F331F441FC7
S1130190551FC701B6010E94D9002F3F310509F050
S11301A008F42883DF91CF91FF90EF90DF90CF90F8
S11301B00895A1E21A2EAA1BBB1BFD010DC0AA1FA4
S11301C0BB1FEE1FFF1FA217B307E407F50720F0BC
S11301D0A21BB30BE40BF50B661F771F881F991F37
S11301E01A9469F760957095809590959B01AC0180
S10D01F0BD01CF010895F894FFCF7C
S9030000FC
