:100000000C9466000C9483000C9483000C94830081
:100010000C9483000C9483000C9483000C94830054
:100020000C9483000C9483000C9483000C94830044
:100030000C9483000C9483000C9483000C94830034
:100040000C9483000C9483000C9483000C94830024
:100050000C9483000C9483000C9483000C94830014
:100060000C9483000C9483000C9483000C94830004
:100070000C9483000C9483000C9483000C948300F4
:100080000C9483000C9483000C9483000C948300E4
:100090000C9483000C9483000C9483000C948300D4
:1000A0000C9483000C9483000C9483000C948300C4
:1000B0000C9483000C9483000C9483000C948300B4
:1000C0000C9483000C9483000C94830011241FBEB5
:1000D000CFEFD8E0DEBFCDBF11E0A0E0B1E0E4ECAF
:1000E000F9E002C005900D92AA31B107D9F721E0DD
:1000F000AAE1B1E001C01D92AA31B207E1F70E9466
:1001000095000C94E0040C940000FC012181622B0A
:1001100061830895FC012281622B62830895FC01B2
:1001200092816095692362830895CF93DF9300D015
:1001300000D01F92CDB7DEB78E010F5F1F4F85E055
:10014000F80111928A95E9F760E875E288EC90E091
:100150000E946C0160E886E290E00E94850060E801
:1001600086E290E00E948F0040E051EE65EF75E07E
:1001700088ED90E00E940C01C8010E94C70088230E
:1001800029F060E886E290E00E948A00FFCFAF92FB
:10019000BF92CF92DF92EF92FF920F93CF93DF93B4
:1001A0005C01C4E165010F2EF3E0EF2EF12CF02D80
:1001B00000E020E030E0A90163E488ED90E00E94D7
:1001C0005701D82F882311F0C15061F7F5018281C2
:1001D0001F928F9380E091E09F938F93C0E0CF9325
:1001E000B12CBF920E94F6014B2D5C2F60E088EC91
:1001F00090E00E949A010F900F900F900F900F9037
:100200000F908D2FDF91CF910F91FF90EF90DF90A6
:10021000CF90BF90AF900895CF92DF92EF92FF9270
:10022000CF93DF93EC019A01AB0160E074E284EFBD
:1002300090E00E94D40169017A0180E1C81AD108D6
:10024000E108F108C701B6012EEF31E040E050E0CF
:100250000E94D401211102C019820EC0243018F46A
:1002600081E0898309C0203118F482E0898304C0C9
:10027000203410F483E08983DA01C9019927AA2781
:10028000BB279C01AD01220F331F441F551FC7011F
:10029000B6010E94D4012F3F310509F008F42883EC
:1002A000DF91CF91FF90EF90DF90CF900895FC0108
:1002B000660F616084EA848384818181887F8830CD
:1002C00021F0803111F081E00895638384E8848314
:1002D00080E9848385E00895CF93DF93EC01CB011F
:1002E000A0E0B0E0880F991FAA1FBB1F880F991FBD
:1002F000AA1FBB1F9C01AD01220F331F441F551FB6
:1003000060E074E284EF90E00E94D4012150310952
:100310003D832C8382E0888386E08A8388E1898319
:10032000DF91CF910895FC01908195FFFDCF668309
:1003300080E00895CF92DF92EF92FF920F931F9388
:10034000CF93DF937C018A01662331F0C62ED12C36
:100350001C141D0474F01FC0FA0160816623D9F0DB
:10036000EA012196C7010E94930169916111FACFB8
:1003700012C0C0E0F801EC0FF11DC7FDFA956081D5
:10038000C7010E949301CF5F8C2F0C2E000C990B9C
:100390008C159D057CF3DF91CF911F910F91FF90FC
:1003A000EF90DF90CF900895A1E21A2EAA1BBB1BFD
:1003B000FD010DC0AA1FBB1FEE1FFF1FA217B30731
:1003C000E407F50720F0A21BB30BE40BF50B661F47
:1003D000771F881F991F1A9469F76095709580950B
:1003E00090959B01AC01BD01CF010895AEE0B0E056
:1003F000ECEFF1E00C94B7040D891E8986E08C8344
:100400001A8309838FEF9FE79E838D83AE01475E3A
:100410005F4F6F89788DCE0101960E941802EF819F
:10042000F885E00FF11F10822E96E4E00C94D304BF
:10043000ABE0B0E0EEE1F2E00C94A9046C017B01CA
:100440008A01FC0117821682838181FFCCC1CE0113
:1004500001963C01F6019381F70193FD859193FF8D
:1004600081917F01882309F4BAC1853239F493FD63
:10047000859193FF81917F01853229F4B60190E047
:100480000E940F04E7CF912C212C312CFFE1F315B2
:10049000D8F08B3279F038F4803279F08332A1F4DD
:1004A000232D20611DC08D3261F0803369F4232D2E
:1004B000216016C0832D8260382EE32DE4603E2E2D
:1004C0002AC0F32DF8601DC037FC2DC020ED280F89
:1004D0002A3040F08E32B9F436FC81C1232D2064DD
:1004E000322E19C036FE06C08AE0989E200D1124D7
:1004F000922E11C0EAE02E9E200D1124222EF32D03
:10050000F0623F2E08C08C3621F4832D8068382E8F
:1005100002C0883641F4F70193FD859193FF8191E4
:100520007F018111B3CF982F9F7D9554933028F48C
:100530000C5F1F4F9FE399830DC0833631F08337E3
:1005400071F0833509F059C021C0F8018081898399
:100550000E5F1F4F88248394912C530113C02801F0
:10056000F2E04F0E511CF801A080B18036FE03C0AE
:10057000692D70E002C06FEF7FEFC5010E94040497
:100580004C018201F32DFF773F2E16C0280122E097
:10059000420E511CF801A080B18036FE03C0692DC7
:1005A00070E002C06FEF7FEFC5010E94F9034C01BC
:1005B000F32DF0683F2E820133FC1BC0822D90E0AA
:1005C00088169906B0F4B60180E290E00E940F040C
:1005D0002A94F4CFF50137FC859137FE81915F01B4
:1005E000B60190E00E940F0421102A9421E0821AA3
:1005F00091088114910471F7E8C0843611F08936AE
:1006000041F5F80137FE07C06081718182819381D5
:100610000C5F1F4F08C060817181072E000C880B92
:10062000990B0E5F1F4FF32DFF763F2E97FF09C0EA
:1006300090958095709561957F4F8F4F9F4FF06893
:100640003F2E2AE030E0A3010E944B04882E86183A
:1006500045C0853731F4232D2F7EB22E2AE030E0BD
:1006600025C0932D997FB92E8F36C1F018F48835A7
:1006700079F0B5C0803719F0883721F0B0C0E92F84
:10068000E061BE2EB4FE0DC0FB2DF460BF2E09C08C
:1006900034FE0AC0292F2660B22E06C028E030E0C2
:1006A00005C020E130E002C020E132E0F801B7FEF1
:1006B00007C060817181828193810C5F1F4F06C0EA
:1006C0006081718180E090E00E5F1F4FA3010E9466
:1006D0004B04882E8618FB2DFF773F2E36FE0DC06B
:1006E000232D2E7FA22E891458F434FE0BC032FC29
:1006F00009C0832D8E7EA82E05C0B82CA32C03C064
:10070000B82C01C0B92CA4FE0FC0FE01E80DF11DEC
:100710008081803321F49A2D997EA92E09C0A2FEF2
:1007200006C0B394B39404C08A2D867809F0B394BC
:10073000A3FC11C0A0FE06C0B21488F4280C922CB1
:100740009B180EC0B21460F4B60180E290E00E94E3
:100750000F04B394F7CFB21418F42B1802C0982CDE
:10076000212CA4FE10C0B60180E390E00E940F048B
:10077000A2FE17C0A1FC03C088E790E002C088E594
:1007800090E0B6010CC08A2D867859F0A1FE02C017
:100790008BE201C080E2A7FC8DE2B60190E00E94EE
:1007A0000F04891438F4B60180E390E00E940F042E
:1007B0009A94F7CF8A94F301E80DF11D8081B60178
:1007C00090E00E940F048110F5CF222009F442CE60
:1007D000B60180E290E00E940F042A94F6CFF60161
:1007E0008681978102C08FEF9FEF2B96E2E10C94F8
:1007F000C504FC010590615070400110D8F7809548
:1008000090958E0F9F1F0895FC01615070400190DC
:100810000110D8F7809590958E0F9F1F08950F9324
:100820001F93CF93DF93FB01238121FD03C08FEF43
:100830009FEF2CC022FF16C046815781248135814D
:100840004217530744F4A081B1819D012F5F3F4FB0
:10085000318320838C93268137812F5F3F4F3783ED
:10086000268314C08B01EC01FB010084F185E02D8F
:100870000995892BE1F6D80116968D919C911797D1
:10088000019617969C938E931697CE01DF91CF9188
:100890001F910F910895FA01AA27283051F12031B4
:1008A00081F1E8946F936E7F6E5F7F4F8F4F9F4F04
:1008B000AF4FB1E03ED0B4E03CD0670F781F891F46
:1008C0009A1FA11D680F791F8A1F911DA11D6A0F14
:1008D000711D811D911DA11D20D009F468943F91C7
:1008E0002AE0269F11243019305D3193DEF6CF01C6
:1008F0000895462F4770405D4193B3E00FD0C9F78C
:10090000F6CF462F4F70405D4A3318F0495D31FDF8
:100910004052419302D0A9F7EACFB4E0A69597954B
:10092000879577956795BA95C9F700976105710521
:1009300008959B01AC010A2E06945795479537956B
:100940002795BA95C9F7620F731F841F951FA01DC5
:1009500008952F923F924F925F926F927F928F9263
:100960009F92AF92BF92CF92DF92EF92FF920F933E
:100970001F93CF93DF93CDB7DEB7CA1BDB0B0FB648
:10098000F894DEBF0FBECDBF09942A883988488805
:100990005F846E847D848C849B84AA84B984C8849B
:1009A000DF80EE80FD800C811B81AA81B981CE0F92
:1009B000D11D0FB6F894DEBF0FBECDBFED01089577
:0409C000F894FFCFD9
:1009C40052656365697665642056616C7565203D82
:0A09D4002025322E3262580A0D0071
:00000001FF
