S00B00005457492E7372656325
S11300000C9466000C9483000C9483000C9483007D
S11300100C9483000C9483000C9483000C94830050
S11300200C9483000C9483000C9483000C94830040
S11300300C9483000C9483000C9483000C94830030
S11300400C9483000C9483000C9483000C94830020
S11300500C9483000C9483000C9483000C94830010
S11300600C9483000C9483000C9483000C94830000
S11300700C9483000C9483000C9483000C948300F0
S11300800C9483000C9483000C9483000C948300E0
S11300900C9483000C9483000C9483000C948300D0
S11300A00C9483000C9483000C9483000C948300C0
S11300B00C9483000C9483000C9483000C948300B0
S11300C00C9483000C9483000C94830011241FBEB1
S11300D0CFEFD8E0DEBFCDBF11E0A0E0B1E0E8ECA7
S11300E0FAE002C005900D92AA31B107D9F721E0D8
S11300F0AAE1B1E001C01D92AA31B207E1F70E9462
S113010095000C9462050C940000FC012181622B83
S113011061830895FC012281622B62830895FC01AE
S11301209281609569236283089560E886E290E095
S11301300E94850060E875E288EC90E00E94EE0180
S113014048EA51E660E070E088ED90E00E940D011D
S1130150811102C00E94AD00FFCFCF92DF92EF92D7
S1130160FF920F931F93CF93DF9300D000D000D062
S1130170CDB7DEB71AE0CE0103966C010F2EF3E083
S1130180EF2EF12CF02D00E020E030E0A90163E433
S113019088ED90E00E947501882311F0115059F701
S11301A08D811F928F9380E091E09F938F938E01B6
S11301B00F5F1F4F1F930F930E947802A80160E006
S11301C088EC90E00E941C020F900F900F900F900B
S11301D00F900F9026960FB6F894DEBF0FBECDBFDA
S11301E0DF91CF911F910F91FF90EF90DF90CF900F
S11301F00895FC0184EA848394819923ECF708959B
S1130200813039F484E8FB01848384E98483848124
S1130210089584ECFB0184830895CF92DF92EF92DA
S1130220FF921F93CF93DF93EC016A017B0162E09D
S113023083E290E00E94850062E083E290E00E9405
S11302408F0062E083E290E00E948A0060E074E242
S113025084EF90E0A70196010E94560269017A0199
S113026080E1C81AD108E108F108C701B6012EEFF0
S113027031E040E050E00E945602211104C019828E
S113028021E010E016C0243028F481E0898324E0C2
S113029010E00FC0203128F482E0898320E110E0CF
S11302A008C0203428F483E0898320E410E001C0EE
S11302B018E0822F90E0A0E0B0E09C01AD01220F95
S11302C0331F441F551FC701B6010E9456022F3F1A
S11302D0310509F008F42883812FDF91CF911F9114
S11302E0FF90EF90DF90CF900895BF92CF92DF926E
S11302F0EF92FF920F931F93CF93DF93EC01162F8E
S11303000E94F9008981887F883019F0803109F0D2
S113031054C0110F11601B8384E88C838C81882363
S1130320ECF78981887F8034E1F581E0E816F104F7
S113033019F484E88C8305C084EC8C83E114F10403
S1130340F1F1870101501109F12C0F2EF4E9BF2EB0
S1130350F02D03C001501109EA948C818823ECF735
S11303608981887F803579F48B81F601EF0DF11D49
S11303708083F394BE018E2D0E94000101151105A6
S113038049F780E021C08835E1F48B81F601EF0D57
S1130390F11D8083BC828C8101151105D9F680E0A2
S11303A013C0883321F480E88C8384E00DC0883442
S11303B051F480E98C8386E007C081E005C080E0C9
S11303C003C082E001C082E0DF91CF911F910F91C1
S11303D0FF90EF90DF90CF90BF900895CF93DF937D
S11303E0EC01CB01A0E0B0E0880F991FAA1FBB1F4E
S11303F0880F991FAA1FBB1F9C01AD01220F331F39
S1130400441F551F60E074E284EF90E00E9456029E
S1130410215031093D832C8382E0888386E08A83DE
S113042088E18983DF91CF910895FC01908195FF44
S1130430FDCF668380E00895CF92DF92EF92FF9222
S11304400F931F93CF93DF937C018A01662331F0CE
S1130450C62ED12C1C141D0474F01FC0FA01608137
S11304606623D9F0EA012196C7010E941502699119
S11304706111FACF12C0C0E0F801EC0FF11DC7FD05
S1130480FA956081C7010E941502CF5F8C2F0C2E54
S1130490000C990B8C159D057CF3DF91CF911F9176
S11304A00F91FF90EF90DF90CF900895A1E21A2E64
S11304B0AA1BBB1BFD010DC0AA1FBB1FEE1FFF1F04
S11304C0A217B307E407F50720F0A21BB30BE40B54
S11304D0F50B661F771F881F991F1A9469F760959B
S11304E07095809590959B01AC01BD01CF01089555
S11304F0AEE0B0E0EEE7F2E00C9439050D891E8918
S113050086E08C831A8309838FEF9FE79E838D8314
S1130510AE01475E5F4F6F89788DCE0101960E94D0
S11305209A02EF81F885E00FF11F10822E96E4E025
S11305300C945505ABE0B0E0E0EAF2E00C942B0536
S11305406C017B018A01FC0117821682838181FF81
S1130550CCC1CE0101963C01F6019381F70193FDD4
S1130560859193FF81917F01882309F4BAC1853273
S113057039F493FD859193FF81917F01853229F4AC
S1130580B60190E00E949104E7CF912C212C312CEC
S1130590FFE1F315D8F08B3279F038F4803279F03A
S11305A08332A1F4232D20611DC08D3261F080338C
S11305B069F4232D216016C0832D8260382EE32D2B
S11305C0E4603E2E2AC0F32DF8601DC037FC2DC018
S11305D020ED280F2A3040F08E32B9F436FC81C168
S11305E0232D2064322E19C036FE06C08AE0989E60
S11305F0200D1124922E11C0EAE02E9E200D11240C
S1130600222EF32DF0623F2E08C08C3621F4832D68
S11306108068382E02C0883641F4F70193FD859135
S113062093FF81917F018111B3CF982F9F7D9554C2
S1130630933028F40C5F1F4F9FE399830DC08336DA
S113064031F0833771F0833509F059C021C0F801C6
S1130650808189830E5F1F4F88248394912C5301DA
S113066013C02801F2E04F0E511CF801A080B180A4
S113067036FE03C0692D70E002C06FEF7FEFC50145
S11306800E9486044C018201F32DFF773F2E16C091
S1130690280122E0420E511CF801A080B18036FEF0
S11306A003C0692D70E002C06FEF7FEFC5010E94A7
S11306B07B044C01F32DF0683F2E820133FC1BC0F8
S11306C0822D90E088169906B0F4B60180E290E09D
S11306D00E9491042A94F4CFF50137FC859137FEEA
S11306E081915F01B60190E00E94910421102A9447
S11306F021E0821A91088114910471F7E8C08436CC
S113070011F0893641F5F80137FE07C06081718127
S1130710828193810C5F1F4F08C060817181072E15
S1130720000C880B990B0E5F1F4FF32DFF763F2EA5
S113073097FF09C090958095709561957F4F8F4F75
S11307409F4FF0683F2E2AE030E0A3010E94CD04C1
S1130750882E861845C0853731F4232D2F7EB22E7E
S11307602AE030E025C0932D997FB92E8F36C1F051
S113077018F4883579F0B5C0803719F0883721F03E
S1130780B0C0E92FE061BE2EB4FE0DC0FB2DF460B5
S1130790BF2E09C034FE0AC0292F2660B22E06C01F
S11307A028E030E005C020E130E002C020E132E082
S11307B0F801B7FE07C060817181828193810C5F6B
S11307C01F4F06C06081718180E090E00E5F1F4F73
S11307D0A3010E94CD04882E8618FB2DFF773F2E9F
S11307E036FE0DC0232D2E7FA22E891458F434FE1C
S11307F00BC032FC09C0832D8E7EA82E05C0B82CF8
S1130800A32C03C0B82C01C0B92CA4FE0FC0FE0158
S1130810E80DF11D8081803321F49A2D997EA92E53
S113082009C0A2FE06C0B394B39404C08A2D86788E
S113083009F0B394A3FC11C0A0FE06C0B21488F45E
S1130840280C922C9B180EC0B21460F4B60180E2FE
S113085090E00E949104B394F7CFB21418F42B18CB
S113086002C0982C212CA4FE10C0B60180E390E0B5
S11308700E949104A2FE17C0A1FC03C088E790E087
S113088002C088E590E0B6010CC08A2D867859F044
S1130890A1FE02C08BE201C080E2A7FC8DE2B6019A
S11308A090E00E949104891438F4B60180E390E04A
S11308B00E9491049A94F7CF8A94F301E80DF11DF4
S11308C08081B60190E00E9491048110F5CF22202E
S11308D009F442CEB60180E290E00E9491042A9489
S11308E0F6CFF6018681978102C08FEF9FEF2B969A
S11308F0E2E10C944705FC01059061507040011041
S1130900D8F7809590958E0F9F1F0895FC01615034
S1130910704001900110D8F7809590958E0F9F1F1D
S113092008950F931F93CF93DF93FB01238121FD40
S113093003C08FEF9FEF2CC022FF16C04681578162
S1130940248135814217530744F4A081B1819D016C
S11309502F5F3F4F318320838C93268137812F5F14
S11309603F4F3783268314C08B01EC01FB010084C5
S1130970F185E02D0995892BE1F6D80116968D9124
S11309809C911797019617969C938E931697CE0178
S1130990DF91CF911F910F910895FA01AA27283072
S11309A051F1203181F1E8946F936E7F6E5F7F4F38
S11309B08F4F9F4FAF4FB1E03ED0B4E03CD0670FB4
S11309C0781F891F9A1FA11D680F791F8A1F911D07
S11309D0A11D6A0F711D811D911DA11D20D009F457
S11309E068943F912AE0269F11243019305D319399
S11309F0DEF6CF010895462F4770405D4193B3E082
S1130A000FD0C9F7F6CF462F4F70405D4A3318F028
S1130A10495D31FD4052419302D0A9F7EACFB4E0D9
S1130A20A6959795879577956795BA95C9F7009791
S1130A306105710508959B01AC010A2E0694579532
S1130A40479537952795BA95C9F7620F731F841F89
S1130A50951FA01D08952F923F924F925F926F921F
S1130A607F928F929F92AF92BF92CF92DF92EF923A
S1130A70FF920F931F93CF93DF93CDB7DEB7CA1BBB
S1130A80DB0B0FB6F894DEBF0FBECDBF09942A88E6
S1130A90398848885F846E847D848C849B84AA848E
S1130AA0B984C884DF80EE80FD800C811B81AA811B
S1130AB0B981CE0FD11D0FB6F894DEBF0FBECDBFE6
S10B0AC0ED010895F894FFCF45
S1130AC872656365697665642076616C7565203D39
S10D0AD82025322E32580A0D0000CA
S9030000FC
